:020000040800F2
:10000000C80800207D110008C90E0008CB0E0008AA
:10001000CF0E0008D30E0008D70E00080000000025
:10002000000000000000000000000000DB0E0008DF
:10003000DD0E000800000000DF0E0008951100082A
:1000400097110008971100089711000897110008F0
:1000500097110008971100089711000897110008E0
:1000600097110008971100089711000897110008D0
:1000700097110008971100089711000897110008C0
:1000800097110008971100089711000897110008B0
:1000900097110008971100089711000897110008A0
:1000A0009711000897110008971100089711000890
:1000B0009711000897110008D70D00089711000844
:1000C0009711000897110008971100089711000870
:1000D00097110008EB3300089711000897110008EA
:1000E0009711000897110008971100089711000850
:1000F0009711000897110008971100089711000840
:10010000971100089711000897110008971100082F
:10011000971100089711000897110008971100081F
:10012000971100089711000897110008971100080F
:1001300000F002F800F03FF80AA090E8000C8244BA
:100140008344AAF10107DA4501D100F034F8AFF297
:10015000090EBAE80F0013F0010F18BFFB1A43F0A5
:1001600001031847A4440000C4440000103A24BF0F
:1001700078C878C1FAD8520724BF30C830C144BF0C
:1001800004680C607047000000230024002500264E
:10019000103A28BF78C1FBD8520728BF30C148BFEA
:1001A0000B607047632903F0DE81002070471FB5A4
:1001B0001FBD10B510BD03F011FA1146FFF7F7FF90
:1001C00000F0C7FC03F02FFA03B4FFF7F2FF03BC03
:1001D00003F0B0F830B502460023FE4804780078FA
:1001E000401CFC4D2870FC4840F82420284600782C
:1001F000142802D100202C462070002105E0F6488A
:1002000050F821000344481CC1B21429F7DB142024
:1002100093FBF0F030BD30B502460023EF48047880
:100220000078401CED4D2870ED4840F82420284609
:100230000078142802D100202C462070002105E00F
:10024000E74850F821000344481CC1B21429F7DBE9
:10025000142093FBF0F030BD30B502460023E14896
:1002600004780078401CDF4D2870DF4840F82420D7
:1002700028460078142802D100202C462070002146
:1002800005E0D94850F821000344481CC1B21429A4
:10029000F7DB142093FBF0F030BD10B500214FF0D8
:1002A000006000F0C2FF4FF4A06000F087FF10BDB7
:1002B00008B501210C2001F05DFE1F20ADF8000003
:1002C00000208DF8030003208DF802006946C7481E
:1002D00001F094FB7020ADF8000048208DF8030079
:1002E00003208DF802006946C14801F087FB4FF4F6
:1002F0006250ADF8000010208DF8030003208DF847
:1003000002006946BA4801F079FB8021B84801F043
:1003100024FC08BDB74A926942F00402B54B9A61C9
:100320001A46D26942F00202DA61B04A126822F03B
:100330007042AE4B1A601A46126842F030421A60A0
:10034000AD4A1080121F1180AB4A143A128842F451
:10035000E042A94B143B1A801A46128842F400620C
:100360001A80A54A0C3A128842F01002A24B0C3BAC
:100370001A80DA13A04B2C3B1A801A46128842F0DE
:1003800001021A80704700229B4B083B1A809A4B4F
:100390001880994B0C331980704700B591B001213A
:1003A000084601F0DAFD0121480201F0E3FD93481F
:1003B00001F09AF99248019092480290002003902F
:1003C00006200490002005908020069040000790B1
:1003D000800008902020099000020A9000200B90D5
:1003E00001A9864801F022FA0121844801F049FA66
:1003F00000200C9001208DF834008DF835004FF46A
:1004000060200E9000200F9006208DF840000CA96F
:100410007B484C3800F067FF012001F021F90723E9
:100420000122002176484C3800F0F5FF0723022214
:10043000012173484C3800F0EEFF0723032202210C
:100440006F484C3800F0E7FF0723042203216C4873
:100450004C3800F0E0FF07230522042168484C389F
:1004600000F0D9FF07230622102165484C3800F020
:10047000D2FF012162484C3800F061FF0121604841
:100480004C3800F067FF5E484C3800F07AFF00BF40
:100490005B484C3800F07AFF0028F9D158484C38B6
:1004A00000F07EFF00BF56484C3800F07EFF002869
:1004B000F9D111B000BD10B5FFF7EFFEFFF7F8FE60
:1004C00002F0CEFEFFF769FF4FF4E13002F041FF8A
:1004D00001214B484C3800F072FF10BD2DE9F84F58
:1004E00006460C4615461F46A64200DC2646AE428E
:1004F00000DB2E46281B03F0C7FE82460A99C81B64
:1005000003F0C2FE8346514603F0E0FD80462046DC
:1005100003F0BAFE4146009003F002FF82463846DF
:1005200003F0B2FE8346514603F0F8FF81463046A1
:1005300003F0AAFE4146009003F0F2FE83464946CE
:1005400003F056FD824603F083FEBDE8F88F70B5D8
:1005500006460C4615462EB14FF40061244801F0C2
:10056000FAFA04E04FF40061214801F0F6FA2CB1E8
:100570004FF480511E4801F0EEFA04E04FF4805130
:100580001B4801F0EAFA2DB14FF40051184801F070
:10059000E2FA04E04FF40051154801F0DEFA70BDB4
:1005A0002DE9F04F87B04021114801F0BAFA164901
:1005B000887710210E4801F0B4FA1349C87720213A
:1005C0000B4801F0AEFA104981F820000D49088867
:1005D0001CE0000020000020680000202100002016
:1005E000B80000202200002008010020000801407F
:1005F000000C0140001002402C04004008000240A2
:100600004C2401405C00002058010020FFF7E2FD6F
:10061000044647F23050002340F6E6721421009061
:100620002046FFF75BFFFE490860FE494888FFF758
:10063000F2FD04464FF4FA60002340F6E6721421FE
:1006400000902046FFF74AFFF549486047F23050D6
:10065000F44900908888002340F6FF721946FFF79E
:100660003DFFEF4988604FF4FA60EE490090C8887A
:10067000002340F6FF721946FFF730FFE849C860D3
:1006800040F2E730E74900900889002340F6FF7206
:100690001946FFF723FFE249086114200090002368
:1006A0004FF4C87208694FF49671FFF717FF83463D
:1006B00003F0EAFD8246DA49C86803F0E5FDD8494F
:1006C0000490886803F0E0FD0390049903F028FE8D
:1006D0008346D54903F0FAFC5146059003F0F6FC39
:1006E000814603F059FC07464FF03332CF4B03F0FD
:1006F0005FFA054603F0D4F90446FFF7ADFDC8499B
:1007000008752021CA4801F00CFA18B90120C44923
:10071000487702E00220C24948774021C44801F0EE
:1007200000FA012807D10020BD4948770022114670
:100730001046FFF70CFFBB49488903F025FA8246B3
:100740004FF06632BB4B03F033FA0022BA4BCDE9CF
:10075000000103F04DF8B94AB94BCDE9020103F0AD
:1007600025FB80460022B74B03F022FA06464FF0E5
:100770006632B54B03F03CF804460022B34B02F05E
:100780008FFFCDE9040103F0BBF9A549087707B055
:10079000BDE8F08F10B52420AD490870A04800686E
:1007A00042F2107190FBF1F03030A94948709C483A
:1007B000006842F2107190FBF1F201FB12004FF45D
:1007C0007A7190FBF1F03030A1498870944800684C
:1007D0004FF47A7190FBF1F201FB1200642190FB5F
:1007E000F1F030309A49C8708D480068642190FB60
:1007F000F1F201FB12000A2190FBF1F03030944934
:100800000871874800680A2190FBF1F201FB120091
:1008100030308F494871824840684FF47A7190FBBC
:10082000F1F030308A4988717D4840684FF47A7120
:1008300090FBF1F201FB1200642190FBF1F03030EB
:100840008349C87176484068642190FBF1F201FB4E
:1008500012000A2190FBF1F030307D490872704897
:1008600040680A2190FBF1F201FB12003030784918
:1008700048726B48806842F2107190FBF1F03030A2
:10088000734988726648806842F2107190FBF1F2F9
:1008900001FB12004FF47A7190FBF1F030306C499B
:1008A000C8725F4880684FF47A7190FBF1F201FBE7
:1008B0001200642190FBF1F030306549087358480C
:1008C0008068642190FBF1F201FB12000A2190FB89
:1008D000F1F030305E494873514880680A2190FB3E
:1008E000F1F201FB12003030594988734C48C0685E
:1008F0004FF47A7190FBF1F030305549C873484895
:10090000C0684FF47A7190FBF1F201FB1200642190
:1009100090FBF1F030304E4908744148C0686421C2
:1009200090FBF1F201FB12000A2190FBF1F0303054
:10093000474948743A48C0680A2190FBF1F201FB2C
:10094000120030304249887435480069642190FBB8
:10095000F1F030303E49C87431480069642190FBA1
:10096000F1F201FB12000A2190FBF1F0303038491E
:1009700008752B4800690A2190FBF1F201FB120077
:100980003030334948752648007D0A2190FBF1F04C
:1009900030302F4988752248007D0A2190FBF1F202
:1009A00001FB120030302A49C8751D49886903F0DF
:1009B0004FFC4FF47A7190FBF1F030302449087607
:1009C0001749886903F044FC4FF47A7190FBF1F207
:1009D00001FB1200642190FBF1F030301C49487695
:1009E0000F49886903F034FC642190FBF1F201FBAC
:1009F00012000A2190FBF1F0303015498876084941
:100A0000886903F025FC0A2190FBF1F201FB12003A
:100A100030300F49C8760248007F0A211AE00000F2
:100A2000580100205C00002000401C463333FB3F8F
:100A3000000C014066660A400000B040E17A14AE46
:100A400047E1F63F00408F406666114000E06F408E
:100A50007C01002090FBF1F03030FD490877FD4823
:100A6000007F0A2190FBF1F201FB12003030F849BF
:100A70004877F848407F3030887710BD10B50024A3
:100A80000CE0F348015DF4A002F0F6FC00BFF3486F
:100A9000008800F040000028F9D0641C1E2CF0DD16
:100AA00010BD2DE9F84F04460D4616461F46DDF8E9
:100AB00028904FF0000A281B03F0E6FB83463146DE
:100AC00003F02EFC8246281B03F0DEFB3946009023
:100AD00003F026FC8346E2480168584603F088FA92
:100AE000DF490860DF490968081B03F0CDFB834636
:100AF000494603F015FCDC490860DA480460DB492C
:100B0000D748006803F0D8FC02D8D848D449086018
:100B1000D749D348006803F0CFFB02D8D448D04966
:100B20000860CF480168504603F062FA0090CE4852
:100B30000168009803F05CFA834603F089FB804665
:100B40004046BDE8F88F002100E0491C8142FCD9F5
:100B5000704708B5FFF7AFFC00210846FFF7DAFB46
:100B60004721092000F0ACFA34E1C248007800289F
:100B7000FAD00020BF490870FFF712FDB548807F0A
:100B800000287CD1BC48007810B90120BB4908700E
:100B90000120B94908708021B94800F0DCFF10211C
:100BA000B74800F0BEFF00286BD1AA48407F02285A
:100BB00030D1012200210846FFF7C9FC0520A549D4
:100BC000009000234FF4FA6248681946FFF786FC4C
:100BD000A04909684843052190FBF1F54FF07E508C
:100BE0009C490090A74BA84A88682946FFF759FFFF
:100BF000044649F64040002302461946009020462C
:100C0000FFF76CFCA14908600846016849F64040BE
:100C1000FFF7B9FB8F48407F01287BD101220021DB
:100C20000846FFF794FC05208A490090002347F20C
:100C3000305208681946FFF751FC86494968484315
:100C4000052190FBF1F5924882490090914B5A079B
:100C5000C8682946FFF725FF044649F640400023AF
:100C60000246194600902046FFF738FC8749086085
:100C70000846016849F64040FFF785FB4AE094E0EA
:100C8000FFE77448407F022820D10022012110464E
:100C9000FFF75DFC4FF07E506E4A00901168794B73
:100CA0009068794AFFF7FDFE044649F6404000236C
:100CB0000246194600902046FFF710FC7349086071
:100CC0000846016849F64040FFF75DFB6148407FF8
:100CD00001281FD1012211460020FFF738FC6C4883
:100CE0005C4A009051686B4BD0685A07FFF7D9FEF9
:100CF000044649F64040002302461946009020462B
:100D0000FFF7ECFB614908600846016849F640407E
:100D1000FFF739FB5D48006849F27041884207DB04
:100D2000002211460120FFF712FC032049494877B1
:100D30005648006849F64041884212D100221146C7
:100D40000120FFF704FC05204249487780214C48E8
:100D500000F003FF00BF4021494800F0E2FE0128F7
:100D6000F9D13C48007F3C2807DB002211460120D6
:100D7000FFF7EDFB0420374948773648007F4628C7
:100D800020DB002211460120FFF7E1FB062031495C
:100D9000487780213A4800F0E0FE00BF4021384803
:100DA00000F0BFFE0128F9D10CE03348007801289B
:100DB00001D13249087000202F4908708021304845
:100DC00000F0CBFE2D48007820B100202B490870A0
:100DD00023490860C9E62DE9F05F01212E4802F0A1
:100DE00026F800286BD001212B4802F031F82B485F
:100DF0000068401C29490860084600686221B0FB71
:100E0000F1F201FB120010B901201A4908702348C1
:100E100000684BF24071B0FBF1F201FB1200B0B977
:100E20000C4989680B4AD26801FB02F002F095FE7A
:100E300080461B4A1B4B02F0BBFE04460D4605498B
:100E4000886903F0A9F8064622462B462CE036E0D6
:100E50007C0100205801002025630000003801407B
:100E600000000020240000200400002000401C4757
:100E700000401CC71A0000201800002019000020A4
:100E8000000C0140CDCCCC3D0000404008000020CB
:100E90003333333F9A99193F000800401C0000206B
:100EA000031BDF86F198613E02F0FAFB824602F0F6
:100EB000C5FB04498861FFF76DFCFFF7DFFDBDE866
:100EC000F09F000058010020704700BFFEE700BF00
:100ED000FEE700BFFEE700BFFEE7704770477047C0
:100EE0000CB50020019000906C48006840F4803000
:100EF0006A49086000BF6948006800F4003000904B
:100F00000198401C0190009818B90198B0F5A06FA5
:100F1000F1D16248006800F4003010B10120009067
:100F200001E0002000900098012843D15C4800684F
:100F300040F010005A4908600846006820F003009D
:100F400008600846006840F00200086053484068A6
:100F5000524948600846406848600846406840F486
:100F6000806048600846406820F47C10486008466D
:100F7000406840F4E81048600846006840F080701F
:100F8000086000BF4548006800F000700028F9D0F4
:100F90004248406820F003004049486008464068E5
:100FA00040F00200486000BF3C48406800F00C0080
:100FB0000828F9D10CBD10B5FFF792FF10BD10B590
:100FC0003648006840F0010034490860084640682F
:100FD00034490840314948600846006832490840B1
:100FE0002E4908600846006820F480200860084602
:100FF000406820F4FE0048604FF41F008860FFF74F
:10100000DAFF4FF000602949086010BD10B50021DB
:1010100000200022214B5B6803F00C0121B1042960
:1010200006D0082928D107E0214B224C236027E075
:101030001F4B204C236023E0184B5B6803F47010B7
:10104000164B5B6803F48032022303EB904022B915
:10105000194B4343174C23600DE0104B5B6803F4BE
:10106000003323B1144B4343124C236003E0104B75
:101070004343104C236003E00D4B0E4C236000BF34
:1010800000BF064B5B68C3F303130C4CE15C094BD8
:101090001B68CB40074C236010BD000000100240CD
:1010A000002002400000FFF8FFFFF6FE08ED00E020
:1010B00000127A002800002000093D002C000020CA
:1010C0007FB505460C460121042000F060FFADF815
:1010D0000850ADF804400020ADF80A00ADF8060055
:1010E00001A9254801F07EF801221146224801F0AD
:1010F000F0FB1E208DF8000001208DF80100032078
:101100008DF8020001208DF80300684600F05BF8BE
:101110000121194801F0C2FB7FBD7FB505460C4691
:101120000121084600F033FFADF80850ADF8044047
:101130000020ADF80A00ADF8060001A94FF080408C
:1011400001F050F801221146900701F0C2FB1C206B
:101150008DF8000001208DF8010002208DF80200BA
:1011600001208DF80300684600F02DF80121880762
:1011700001F094FB7FBD0000000800400948804753
:1011800009480047FEE7FEE7FEE7FEE7FEE7FEE769
:10119000FEE7FEE7FEE7FEE704480549054A064B81
:1011A00070470000BF0F000831010008C80200208E
:1011B000C8080020C8040020C804002031490143A9
:1011C000314A1160704770B5002100230F22C478A6
:1011D00004B32D4C246804F4E064C4F5E064210AEF
:1011E000C1F10403CA40447804FA03F1847814403E
:1011F00021430901254C0678A155047804F01F0508
:101200000124AC4005786D11AD0005F1E025C5F86D
:10121000004109E0047804F01F050124AC401C4D96
:101220000678761145F8264070BD1A4A0A400243F6
:10123000154B1B1F1A60704739B1134A121D1268F3
:101240000243114B1B1D1A6006E00F4A121D126863
:1012500082430D4B1B1D1A607047042808D14FF0C4
:10126000E021096941F004014FF0E022116107E03B
:101270004FF0E021096921F004014FF0E0221161F3
:10128000704700000000FA050CED00E000E400E00B
:1012900080E100E080FFFF1F10B50446FA48844259
:1012A00008D10121401500F07FFE0021601500F0FB
:1012B0007BFE17E0F548844208D10121001500F0BB
:1012C00073FE0021201500F06FFE0BE0F048844211
:1012D00008D10121C80300F067FE00214FF400404F
:1012E00000F062FE10BD30B50246002000235068B9
:1012F000E84C20400D790C6844EA052420435060F6
:101300009068E54C2040D1E902542C434D7944EAE1
:10131000450420439060D06A20F470000C7C641E69
:10132000E4B2234340EA0350D06230BD00210160A3
:10133000017141718160C16001210174704721B167
:10134000826842F00102826003E0826822F00102BA
:101350008260704721B1826842F48072826003E04B
:10136000826822F480728260704710B50023CBB28D
:101370001AB144681C43446002E044689C434460E2
:1013800010BD816841F0080181607047014600206E
:101390008A6802F008020AB1012000E000207047CC
:1013A000816841F0040181607047014600208A682D
:1013B00002F004020AB1012000E00020704721B1D0
:1013C000826842F4A002826003E0826822F4A002F4
:1013D00082607047014600208A6802F480020AB1E8
:1013E000012000E00020704710B50A4600210023CC
:1013F000416821F46041531E41EA4331416010BD10
:1014000021B1426842F40062426003E0426822F483
:10141000006242607047F0B504460D46002000218E
:10142000092D11DDE068A5F10A0606EB460707263F
:1014300006FA07F18843A5F10A0606EB460603FA09
:1014400006F10843E0600CE0206905EB450707263C
:1014500006FA07F1884305EB450603FA06F108434F
:101460002061072A0FDA606B561E06EB86071F26DF
:1014700006FA07F18843561E06EB860605FA06F1C2
:101480000843606322E00D2A0FDA206BD61F06EBBB
:1014900086071F2606FA07F18843D61F06EB860645
:1014A00005FA06F10843206310E0E06AA2F10D0698
:1014B00006EB86071F2606FA07F18843A2F10D0600
:1014C00006EB860605FA06F10843E062F0BD21B19D
:1014D000826842F48012826003E0826822F4801203
:1014E000826070470146C86C80B2704766484C30D5
:1014F0000068704721B1426842F48062426003E0B4
:10150000426822F480624260704721B1426842F42E
:101510008052426003E0426822F480524260704789
:101520000A460021816821F4E0411143816070473F
:1015300021B1826842F40042826003E0826822F4B2
:1015400000428260704721B1826842F402128260D8
:1015500003E0826822F40212826070470146002094
:101560008A6802F400120AB1012000E000207047EE
:10157000F0B504461546002000220026092911DD99
:10158000E068A1F10A0707EB470C072707FA0CF2FE
:101590009043A1F10A0707EB470703FA07F210434C
:1015A000E0600CE0206901EB410C072707FA0CF220
:1015B000904301EB410703FA07F210432061A06B4F
:1015C000C0F30156EF1C06F1010CA7EB0C0707EB6B
:1015D000870C1F2707FA0CF29043EF1C06F1010C51
:1015E000A7EB0C0707EB870701FA07F21043A0638C
:1015F000F0BD10B50A4600210023816B21F4401193
:10160000531E41EA0351816310BD08B500230093C6
:101610000090009B0B440093009B1A6008BD08B526
:10162000024600200090009201F12800009B18441F
:1016300000900098006880B208BD0A460021416809
:10164000164B1940114341607047416282627047F6
:101650000A460021416821F01F0111434160704793
:1016600040B109490831096841F40001064A0832CD
:10167000116007E004490831096821F40001024AB9
:10168000083211607047000000240140002801402A
:10169000003C0140FFFEF0FFFDF7F1FFFFFD3FFFC3
:1016A0000246002013680B400BB1012000E000202F
:1016B0007047CA430260704770B50246002000239D
:1016C00000240B125568CEB205EA060415681D40C9
:1016D00015B10CB1012000E0002070BD00220A12FB
:1016E000D34303607047000001684FF6FE7211405B
:1016F00001600021016041608160C1608D498842C4
:1017000008D18C490839496841F00F01894A083AE3
:1017100051608AE087491431884208D185490839E7
:10172000496841F0F001834A083A51607DE08149FF
:101730002831884208D17F490839496841F47061ED
:101740007C4A083A516070E07A493C31884208D1BD
:1017500078490839496841F47041764A083A51603D
:1017600063E074495031884208D1724908394968A8
:1017700041F470216F4A083A516056E06D49643176
:10178000884208D16B490839496841F47001694AB7
:10179000083A516049E067497831884208D1654983
:1017A0000839496841F07061624A083A51603CE08A
:1017B0006149884206D1011F096841F00F01021FEB
:1017C000116032E05C491431884208D15A49091F3E
:1017D000096841F0F001584A121F116025E056498E
:1017E0002831884208D15449091F096841F47061C1
:1017F000514A121F116018E04F493C31884208D10C
:101800004D49091F096841F470414B4A121F11608C
:101810000BE049495031884207D14749091F0968FF
:1018200041F47021444A121F1160704710B5002224
:10183000026847F6F0739A430C6A8B6823430C697D
:1018400023434C6923438C692343CC6923434C6A6B
:1018500023438C6A23431A430260CB6843600B68BE
:1018600083604B68C36010BD0021016041608160EE
:10187000C160016141618161C16101624162816256
:10188000704721B1026842F00102026004E0026880
:101890004FF6FE731A40026070471AB103680B439B
:1018A000036002E003688B43036070474160704748
:1018B0000146486880B2704701460020002201F0CE
:1018C00080531BB11C4B083B1A6802E0194B083BC4
:1018D0001A6802EA01030BB1012000E00020704702
:1018E00000F0805119B11449091F086002E0114944
:1018F00008394860704701460020002201F08053FB
:101900001BB10D4B083B1A6802E00A4B083B1A68F2
:1019100002EA01030BB1012000E00020704700F053
:10192000805119B10449091F086002E001490839D2
:1019300048607047080002400804024010B50446A1
:10194000CC48844208D10121042000F02DFB002165
:10195000042000F029FB46E0C748844208D1012159
:10196000082000F021FB0021082000F01DFB3AE0D8
:10197000C248844208D10121102000F015FB00214B
:10198000102000F011FB2EE0BD48844208D1012157
:10199000202000F009FB0021202000F005FB22E0C0
:1019A000B848844208D10121402000F0FDFA00210E
:1019B000402000F0F9FA16E0B348844208D1012132
:1019C000802000F0F1FA0021802000F0EDFA0AE01A
:1019D000AE48844207D10121801500F0E5FA0021CC
:1019E000A01500F0E1FA10BD10B50121084600F085
:1019F000DBFA0021012000F0D7FA10BD2DE9F041FB
:101A0000024600250026002000230024002791F82C
:101A100003C00CF00F0591F803C00CF0100CBCF1E2
:101A2000000F03D091F802C04CEA050591F800C000
:101A3000BCF1000F31D0146800202BE04FF0010CF6
:101A40000CFA00F3B1F800C00CEA03069E4220D164
:101A500083004FF00F0C0CFA03F7BC4305FA03FCAC
:101A60004CEA040491F803C0BCF1280F06D14FF0F2
:101A7000010C0CFA00FCC2F814C00AE091F803C093
:101A8000BCF1480F05D14FF0010C0CFA00FCC2F874
:101A900010C0401C0828D1D31460B1F800C0BCF1BC
:101AA000FF0F34DD546800202EE000F1080C4FF0E9
:101AB000010808FA0CF3B1F800C00CEA03069E42D4
:101AC00021D183004FF00F0C0CFA03F7BC4305FA49
:101AD00003FC4CEA040491F803C0BCF1280F05D1C3
:101AE00000F1080C08FA0CF8C2F8148091F803C051
:101AF000BCF1480F07D100F1080C4FF0010808FABB
:101B00000CF8C2F81080401C0828CED35460BDE801
:101B1000F0814FF6FF710180022181700421C170B4
:101B200070470246002093680B400BB1012000E093
:101B3000002070470146886880B270470246002046
:101B4000D3680B400BB1012000E000207047014634
:101B5000C86880B2704701617047416170470AB13F
:101B6000016100E041617047C16070474FF480320D
:101B70000A4382618161826182698269704702469B
:101B80000020434B18684FF68073184040EA02105B
:101B900008433F4B186070473E49C8617047F0B535
:101BA0000A46002300240021002500F00046B6F17B
:101BB000004F02D1364EF16901E0354E7168C0F335
:101BC000034583B200F44016B6F5401F08D121F05A
:101BD00070612F4E766826F070662D4F7E6012E0A1
:101BE00000F48016B6F5801F06D1032606FA05F428
:101BF000A14341F0706106E0460D360103FA06F696
:101C0000B14341F0706122B1460D360103FA06F688
:101C1000314300F00046B6F1004F02D11C4EF16195
:101C200001E01B4E7160F0BD30B500228B071C0F28
:101C30000F2303FA04F2164B08338C1053F82430A8
:101C40009343134C08348D1044F8253023468C10F0
:101C500053F824308C07240F00FA04F423430C4C6F
:101C600008348D1044F8253030BD0A49DC31086055
:101C70007047000000080140000C014000100140C6
:101C80000014014000180140001C014000200140E8
:101C90000000014000002042DF48006840F00100E1
:101CA000DD49086008464068DC490840DA49486078
:101CB00008460068DA490840D749086008460068C5
:101CC00020F4802008600846406820F4FE00486048
:101CD0004FF41F0088607047CF49096821F48031B4
:101CE000CD4A11601146096821F480211160B0F5D8
:101CF000803F03D0B0F5802F0ED106E0C6490968B9
:101D000041F48031C44A116007E0C349096841F4D5
:101D1000A021C14A116000E000BF00BF704710B5AC
:101D200001460022002300204A11012A02D1BA4CA8
:101D3000236806E0022A02D1B74C236A01E0B64CC0
:101D4000636A01F01F02012494401C400CB1012081
:101D500000E0002010BD38B50020009000240025D0
:101D600000BF3120FFF7DBFF05460098401C0090C4
:101D70000098B0F5A06F01D0002DF2D03120FFF710
:101D8000CEFF08B1012400E00024204638BD014602
:101D90000020A14A106820F0F80040EAC10010605D
:101DA0007047A04908607047024600209A4B586867
:101DB00020F47C1042EA01031843974B58607047A7
:101DC00098490866704701460020934A506820F001
:101DD00003000843506070478F48406800F00C00D3
:101DE0007047014600208C4A506820F0F0000843FC
:101DF0005060704701460020874A506820F4E06038
:101E000008435060704701460020834A506820F420
:101E1000605040EAC1005060704729B17E4A527A52
:101E200002437D4B5A7204E07B4A527A82437A4BDA
:101E30005A7270477B49D8310860704701460020CC
:101E4000754A506820F440400843506070470021B4
:101E5000714A20321170704A82F82010012802D095
:101E600004280AD104E001216B4A2032117005E0F8
:101E70000521694A2032117000E000BF00BF7047A1
:101E80006949086070476449096A0143624A1162FE
:101E90007047654944390860704730B50021002219
:101EA000002400235C4D6D6805F00C0121B104296C
:101EB00005D0082923D105E05C4D056022E05B4D8B
:101EC00005601FE0544D6D6805F47012524D6D6849
:101ED00005F48034022505EB92421CB9544D55435C
:101EE00005600BE04C4D6D6805F400351DB1504D9B
:101EF0005543056002E04D4D5543056002E04B4DF2
:101F0000056000BF00BF444D6D6805F0F001090990
:101F1000484D6B5C0568DD4045603F4D6D6805F4DC
:101F2000E061090A434D6B5C4568DD4085603A4DD0
:101F30006D6805F46051C90A3E4D6B5C4568DD4033
:101F4000C560354D6D6805F44041890B3A4D6B5CB9
:101F5000C568B5FBF3F5056130BD29B12E4A52695C
:101F600002432D4B5A6104E02B4A526982432A4BAB
:101F70005A61704729B1284A92690243264B9A61F7
:101F800004E0254A92698243234B9A61704729B144
:101F9000214AD2690243204BDA6104E01E4AD26929
:101FA00082431D4BDA61704729B11B4AD268024354
:101FB000194BDA6004E0184AD2688243164BDA60A3
:101FC000704729B1144A12690243134B1A6104E0A5
:101FD000114A12698243104B1A6170471249403905
:101FE000086070470F49C86470470B49C871704753
:101FF0000948406A40F080700749486270470146CE
:102000000020054A92680A400AB1012000E0002041
:102010007047014988727047001002400000FFF8C5
:10202000FFFFF6FE000042428004424200127A00A6
:1020300000093D003C0000204C00002010B5044683
:10204000FE48844208D10121C014FFF7ADFF0021F2
:10205000E014FFF7A9FFC4E0B4F1804F08D10121DB
:102060000846FFF7AEFF00210120FFF7AAFFB8E006
:10207000F348844208D101210220FFF7A2FF00218A
:102080000220FFF79EFFACE0EE48844208D1012118
:102090000420FFF796FF00210420FFF792FFA0E045
:1020A000E948844208D101210820FFF78AFF002176
:1020B0000820FFF786FF94E0E448844208D101211C
:1020C0001020FFF77EFF00211020FFF77AFF88E045
:1020D000DF48844208D101212020FFF772FF002150
:1020E0002020FFF76EFF7CE0DA48844208D101210E
:1020F0004014FFF759FF00216014FFF755FF70E00F
:10210000D548844209D10121C804FFF74DFF0021C1
:102110004FF40020FFF748FF63E0D048844209D124
:1021200001210805FFF740FF00214FF48010FFF761
:102130003BFF56E0CA48844209D101214805FFF718
:1021400033FF00214FF40010FFF72EFF49E0C54890
:10215000844208D101214020FFF733FF00214020B5
:10216000FFF72FFF3DE0C048844208D101218020C5
:10217000FFF727FF00218020FFF723FF31E0BB4856
:10218000844208D101218015FFF71BFF0021A01513
:10219000FFF717FF25E0B648844209D10121080462
:1021A000FFF702FF00214FF48030FFF7FDFE18E03B
:1021B000B048844209D101214804FFF7F5FE00210F
:1021C0004FF40030FFF7F0FE0BE0AB48844208D13B
:1021D00001218804FFF7E8FE00214FF48020FFF77B
:1021E000E3FE10BD00220288944B98420ED0994B1A
:1021F00098420BD0B0F1804F08D0914B984205D057
:10220000904B984202D0904B984204D14FF68F7376
:102210001A404B881A438D4B984207D08C4B9842FA
:1022200004D04FF6FF431A40CB881A4302808B88B4
:1022300083850B880385814B98420BD0854B984250
:1022400008D08B4B984205D08A4B984202D08A4BDB
:10225000984201D10B7A038601238382704770B5BF
:10226000002400220023058C4FF6FE7635400584BD
:10227000028C8388048B4FF68F752C40B51E2C4042
:102280000D882C43751E2A400D892A434D882A4308
:102290006A4DA8420BD06F4DA84208D0744DA84299
:1022A00005D0744DA84202D0734DA84213D14FF609
:1022B000F7752A404D892A434FF6FB752A408D88D1
:1022C0002A434FF6FF652B404FF6FF552B408D8973
:1022D0002B43CD892B4383800483CD88858602845C
:1022E00070BD70B5002400220023058C4FF6EF76F8
:1022F00035400584028C8388048B48F6FF752C409A
:102300004FF6FF452C400D884FF6FF7606EA05256F
:102310002C434FF6DF752A400D8906EA05152A433E
:102320004D8806EA05152A43444DA84202D0494D7E
:10233000A8421DD14FF67F752A404D894FF6FF7692
:1023400006EA05152A434FF6BF752A408D8806EA2E
:1023500005152A434FF6FF352B404FF2FF752B40F2
:102360008D8906EA85052B43CD8906EA85052B4331
:1023700083800483CD880587028470BD70B50024F6
:1023800000220023058C4FF6FF6635400584028C41
:102390008388848B4FF68F752C404FF6FC752C404C
:1023A0000D882C434FF6FF552A400D894FF6FF76D6
:1023B00006EA05252A434D8806EA05252A431F4DCE
:1023C000A84202D0234DA8421DD14FF2FF752A40EA
:1023D0004D894FF6FF7606EA05252A434FF6FF356D
:1023E0002A408D8806EA05252A434EF6FF752B40C4
:1023F0004DF6FF752B408D8906EA05152B43CD89D7
:1024000006EA05152B4383808483CD888587028463
:1024100070BD70B5002200230024058C4EF6FF76B7
:1024200035400584038C8488828B48F6FF752A40EA
:102430004FF6FF452A400D8820E00000002C0140A7
:102440000004004000080040000C00400010004064
:102450000014004000340140004C01400050014095
:102460000054014000180040001C004000200040C3
:102470000040014000440140004801404FF6FF7613
:1024800006EA05252A434DF6FF752B400D8906EA1D
:1024900005352B434D8806EA05352B43FA4DA842F6
:1024A00002D0FA4DA84208D14BF6FF752C408D8919
:1024B0004FF6FF7606EA85152C4384808283CD880B
:1024C000A0F84050038470BD828B4FF2FF331A4056
:1024D0008283828B4FF6FF7303EA01231A438283C0
:1024E0007047F0B50C461546002200210026078CE7
:1024F0004EF6FF7C07EA0C070784828B018C4FF6AF
:10250000FF7707EA043640F6FF473A404FF6FF7779
:1025100007EA05273A434FF6FF7707EA03373A43BE
:10252000D94FB8420ED0D94FB8420BD0B0F1804F3E
:1025300008D0D74FB84205D0D64FB84202D0D64FB8
:10254000B84206D14DF6FF77394046F480573943FB
:1025500005E047F6FF57394044F4805739438283FA
:102560000184F0BD828B4FF6F3731A408283828B15
:102570000A4382837047F0B50C46154600220021BD
:102580000026078C4FF6FF6C07EA0C070784828B46
:10259000018C4FF6FF7707EA04264FF60C773A4096
:1025A0004FF6FF7707EA03172F433A43B64FB84277
:1025B0000ED0B64FB8420BD0B0F1804F08D0B44F18
:1025C000B84205D0B34FB84202D0B34FB84206D19B
:1025D0004FF6FF57394046F48077394305E04FF214
:1025E000FF57394044F48077394382830184F0BD3A
:1025F000028B4FF2FF331A400283028B4FF6FF73B8
:1026000003EA01231A4302837047F0B50C461546CE
:10261000002200210026078C4FF6EF7C07EA0C070A
:102620000784028B018C4FF6FF7707EA041640F609
:10263000FF473A404FF6FF7707EA03373A434FF632
:10264000FF7707EA05273A438F4FB8420ED08F4FE6
:10265000B8420BD0B0F1804F08D08D4FB84205D0B2
:102660008C4FB84202D08C4FB84206D14FF6DF777C
:10267000394046F01007394305E04FF65F7739409F
:1026800044F01007394302830184F0BD028B4FF6FA
:10269000F3731A400283028B0A4302837047F0B53A
:1026A0000C46154600220021068C4FF6FE773E4070
:1026B0000684028B018C4FF60C7632407E1C06EAB3
:1026C00003162E433243704EB0420ED06F4EB042CE
:1026D0000BD0B0F1804F08D06D4EB04205D06D4E9A
:1026E000B04202D06C4EB04206D14FF6FD7631407A
:1026F00044F00106314305E04FF6F576314044F0F1
:102700000106314302830184F0BD70B505460C46D5
:102710005D4885420ED05D4885420BD0B5F1804FB3
:1027200008D05B48854205D05A48854202D05A48B5
:10273000854200D100E000BF208850B92389A288DB
:1027400061882846FFF7ABFFE1882846FFF79EFF28
:1027500025E0208804280AD12389A2886188284698
:10276000FFF753FFE1882846FFF742FF17E0208874
:1027700008280AD12389A28861882846FFF7FBFE32
:10278000E1882846FFF7EEFE09E02389A2886188E8
:102790002846FFF7A6FEE1882846FFF795FE70BDA4
:1027A0002DE9F04105460C4600260127608808B94E
:1027B000022600E00026A088012801D1022700E0BF
:1027C00001272088A0B92389A28861882846FFF7BD
:1027D00066FFE1882846FFF759FF23893A463146CC
:1027E0002846FFF712FFE1882846FFF701FF13E0B4
:1027F0002389A28861882846FFF707FFE1882846D9
:10280000FFF7F6FE23893A4631462846FFF747FF91
:10281000E1882846FFF73AFFBDE8F0810A884B8837
:102820001A438B881A43CB881A430B891A434B8966
:102830001A438B891A43A0F8442070474FF6FF7162
:10284000818000210180C180418001727047002198
:10285000018041808180C180018141818181C1816C
:102860007047002101804180012181800021C180C9
:10287000018170470021018041808180C1800181F8
:102880004181818170470000002C014000340140EB
:102890000004004000080040000C004021B1028804
:1028A00042F00102028004E002884FF6FE731A40F3
:1028B0000280704731B1B0F8442042F40042A0F8E1
:1028C000442005E0B0F84420C2F30E02A0F84420F2
:1028D00070471AB183890B43838102E083898B435C
:1028E000838170478182704741EA0203A0F8483033
:1028F00070471AB183890B43838102E083898B433C
:102900008381704701894FF6F87211400181704749
:102910000A46002101894FF68F7319401143018146
:10292000704730B504460D4629462046FFF7F0FFB4
:10293000208940F00700208130BD2DE9F041044698
:102940000D4616461F46602D06D13B4601223146F4
:102950002046FFF75AFE05E03B460122314620465D
:10296000FFF79DFE29462046FFF7D2FF208940F061
:1029700007002081BDE8F08130B50C4600210189B7
:10298000C9B24FF6FF7505EA0325154325432943D0
:10299000018130BD2DE9F04105460E4617469846A7
:1029A000002443463A4631462846FFF7E5FF2C8986
:1029B0004FF6F870044044F007044FF68F7004405F
:1029C00044F070042C81BDE8F081F0B504460D465A
:1029D00016461F463B46324629462046FFF7CCFFA7
:1029E000208940F480402081F0BD018582827047BB
:1029F0000A46002101884FF68F7319401143018068
:102A00007047F0B50C4615461E46002100220023F3
:102A10000189028B038C4FF6F877394021434FF63A
:102A2000FC473A4040F201173A434FF6DD773B400E
:102A30004FF6FF7707EA06172F433B4301810283D6
:102A40000384F0BD0A460021018B4FF68F731940B5
:102A50001143018370470A460021018B48F6FF733A
:102A600019404FF6FF7303EA0223194301837047AD
:102A70000A460021818B4FF68F73194011438183E1
:102A800070470A460021818B48F6FF7319404FF6C4
:102A9000FF7303EA022319438183704721B102883F
:102AA00042F08002028004E002884FF67F731A40F1
:102AB0000280704721B1828842F00402828004E0E3
:102AC00082884FF6FB731A408280704721B182885A
:102AD00042F00802828004E082884FF6F7731A40C1
:102AE0008280704721B1828842F00102828004E036
:102AF00082884FF6FE731A40828070470A46002192
:102B0000018B4FF6F77319401143018370470A4652
:102B10000021018B4FF2FF7319404FF6FF7303EA58
:102B200002231943018370470A460021818B4FF627
:102B3000F77319401143818370470A460021818B46
:102B40004FF2FF7319404FF6FF7303EA0223194354
:102B5000818370470A460021018B4FF6FB731940B1
:102B60001143018370470A460021018B4FF6FF3362
:102B700019404FF6FF7303EA02231943018370479C
:102B80000A460021818B4FF6FB7319401143818364
:102B900070470A460021818B4FF6FF3319404FF6EC
:102BA000FF7303EA02231943818370470A46002119
:102BB000018B4FF67F7319401143018370470A461A
:102BC0000021018BC1F30E014FF6FF7303EA0223CC
:102BD0001943018370470A460021818B4FF67F73AA
:102BE00019401143818370470A460021818BC1F34C
:102BF0000E014FF6FF7303EA0223194381837047E6
:102C00000A460021018C4FF6FD73194011430184DF
:102C100070470A460021018C4FF6F77319401143A3
:102C2000018470470A460021018C4FF6DF7319407A
:102C30004FF6FF7303EA02131943018470470A46F3
:102C40000021018C4FF67F7319404FF6FF7303EAA2
:102C500002131943018470470A460021018C4FF684
:102C6000FF5319404FF6FF7303EA0223194301840F
:102C700070470A460021018C4FF2FF7319404FF64E
:102C8000FF7303EA02231943018470470A460021B7
:102C9000018C4DF6FF7319404FF6FF7303EA0233C0
:102CA00019430184704730B5002301248C40A3B23E
:102CB000048C9C430484048C02FA01F5ADB22C43CD
:102CC000048430BD30B5002304248C40A3B2048CAE
:102CD0009C430484048C02FA01F5ADB22C430484B5
:102CE00030BD70B503460020002418461830012579
:102CF0008D40ACB21D8CA5431D8409B1082909D1B2
:102D000000EB6100056825F0700505600568154356
:102D100005600EE00D1FC5F34E052844056825F437
:102D2000E045056005684FF6FF7606EA0226354362
:102D3000056070BD21B1028842F00202028004E009
:102D400002884FF6FD731A400280704721B1028855
:102D500042F00402028004E002884FF6FB731A403E
:102D60000280704721B1828842F08002828004E0B4
:102D700082884FF67F731A408280704702884FF630
:102D8000F7731A40028002880A43028070478288E3
:102D90004FF68F731A40828082880A438280704780
:102DA00002894FF6F8731A40028102890A430281B0
:102DB000704702894FF67F731A40028102890A43E5
:102DC0000281704781847047818570478186704792
:102DD0000187704781877047A0F8401070470288CC
:102DE0004FF6FF431A40028002880A430280704770
:102DF0000146888E70470146088F70470146888FCC
:102E000070470146B1F8400070470146888C704712
:102E10000146088D704702460020138A0B400BB113
:102E2000012000E000207047CA430282704730B59D
:102E30000246002000230024158A05EA0103958933
:102E400005EA010413B10CB1012000E0002030BDFF
:102E5000CA4302827047000010B50446FB48844212
:102E600009D101218803FFF79FF800214FF480402A
:102E7000FFF79AF832E0F648844209D1012148046C
:102E8000FFF79FF800214FF40030FFF79AF825E094
:102E9000F048844209D101218804FFF792F800210B
:102EA0004FF48020FFF78DF818E0EB48844209D1F9
:102EB0000121C804FFF785F800214FF40020FFF737
:102EC00080F80BE0E548844208D101210805FFF7AE
:102ED00078F800214FF48010FFF773F810BD2DE94A
:102EE000F04786B005460E460024A24600BFA14624
:102EF0000027B08900B100BF2F462C8A4CF6FF7026
:102F00000440F08804432C82AC894EF6F310044050
:102F1000B08831890843718908430443AC81AC8A85
:102F20004FF6FF400440B0890443AC8201A8FEF78D
:102F3000B4FFC648874202D1DDF810A001E0DDF8F9
:102F40000CA0A88900F4004040B10AEBCA0000EBD5
:102F50000A1031684900B0FBF1F807E00AEBCA003B
:102F600000EB0A1031688900B0FBF1F86420B8FB6F
:102F7000F0F004012009642101FB1089A88900F404
:102F8000004040B1322000EBC900B0FBF1F000F08E
:102F90000700044308E0322000EB09106421B0FB75
:102FA000F1F000F00F0004432C8106B0BDE8F0877B
:102FB0004FF41651016000218180C18001810C21F4
:102FC000418100218181704710B502460020108A9E
:102FD0004FF2FF0318400B884C8823438C8823430F
:102FE000CC8823431843108210BD0021018041800A
:102FF0008180C180704721B1828942F40052828170
:1030000004E082894DF6FF731A4082817047F0B563
:103010000346002400260025002040F66A17B94226
:1030200000D100BF1846C1F3421401F01F0601276A
:1030300007FA06F5012C01D10C3004E0022C01D175
:10304000103000E014301AB107682F43076002E027
:103050000768AF430760F0BD1AB1838A0B438382D0
:1030600002E0838A8B4383827047028A4FF6F073B3
:103070001A400282028A0A430282704782894FF212
:10308000FF731A40828182890A438281704721B18D
:10309000828942F00202828104E082894FF6FD7348
:1030A0001A4082817047028A4FF6DF731A4002820B
:1030B000028A0A430282704721B1028A42F48042A6
:1030C000028204E0028A4BF6FF731A4002827047C4
:1030D000C1F308028280704701468888C0F3080067
:1030E0007047818941F0010181817047028BD2B222
:1030F0000283028B42EA012202837047028B02F4B0
:103100007F420283028B0A430283704721B1828A85
:1031100042F02002828204E0828A4FF6DF731A4076
:103120008282704721B1828A42F01002828204E0DA
:10313000828A4FF6EF731A408282704721B1828AE9
:1031400042F00802828204E0828A4FF6F7731A4046
:103150008282704721B1828942F40042828103E079
:103160008289C2F30E028281704721B1828A42F4C1
:103170000062828204E0828A4FF2FF731A408282E8
:103180007047828A4FF6FB731A408282828A0A4312
:103190008282704721B1828A42F00202828204E078
:1031A000828A4FF6FD731A408282704702460020E1
:1031B000B1F5007F00D100BF13880B400BB1012097
:1031C00000E00020704701F40072B2F5007F00D1EA
:1031D00000BFCA430280704770B502460024002336
:1031E0000025002040F66A16B14200D100BFC1F3AD
:1031F000421501F01F03012606FA03F3012D02D147
:103200009689334006E0022D02D1168A334001E050
:10321000968A33400C12012606FA04F416883440CC
:1032200013B10CB1012000E0002070BD10B50022E8
:10323000002340F66A14A14200D100BF0A12012403
:103240009440A3B2DC43048010BD0000003801406C
:103250000044004000480040004C00400050004046
:1032600010B56FF00400FDF7F8FF2E4800682E49F6
:10327000B0FBF1F02D4908700846007800EB4001E2
:10328000C1EBC0104FF6FF7101EAC0002849088069
:1032900010BD0146254A12784A434FF0E0235A6197
:1032A00000229A611A46126942F001021A6100BFB7
:1032B0004FF0E022106900F001021AB100F48032F0
:1032C000002AF5D04FF0E022126922F001024FF0FF
:1032D000E0231A6100229A6170470146144A12885D
:1032E0004A434FF0E0235A6100229A611A4612695C
:1032F00042F001021A6100BF4FF0E022106900F0B5
:1033000001021AB100F48032002AF5D04FF0E02219
:10331000126922F001024FF0E0231A6100229A6143
:10332000704700002800002000127A0050000020A2
:1033300052000020014600BF704700BF494A128872
:1033400002F04002002AF9D0C2B2464B1B1D1A807F
:10335000704710B586B00446012144F20400FEF720
:1033600009FE4FF40070ADF8140003208DF816002C
:1033700018208DF8170005A93B48FEF73FFB4FF4D6
:103380008060ADF8140004208DF8170005A93648B8
:10339000FEF734FB25208DF8000003208DF8010096
:1033A0008DF8020001208DF803006846FDF70BFF41
:1033B00001940020ADF80800ADF80A00ADF80C004B
:1033C000ADF810000C20ADF80E0001A92548FFF75C
:1033D00086FD012240F225512248FFF718FE012107
:1033E0002048FFF708FE06B010BD10B540F2255189
:1033F0001C48FFF7F1FE10B31A48FFF76DFEC4B288
:103400001A48008800F40040C8B91848008800F441
:10341000804060B10A2C03D000201449088020E0CD
:103420001248008840F400401049088019E00D2C33
:1034300006D10E48008840F480400C49088010E016
:103440000A480088C0F30D0009490C540748008859
:10345000401C0649088008460088C72801DD002076
:10346000088010BD003801400008014058000020CD
:103470009B010020704700000FB4044910B503AA57
:10348000029800F07DF810BC5DF814FB5400002099
:103490002DE9F0410E460446002020622046E168F6
:1034A000884730B3252805D0D4E901219047206A08
:1034B000401CF2E7E168204600278847050018D045
:1034C000A5F14100192802D820354FF40067324693
:1034D000294620462760FCF765FE40B1012804D04C
:1034E000F61D26F007060836D8E7361DD6E728462B
:1034F000DAE7206ABDE8F08170B50C460546012A7E
:1035000005D02878800600D5EA69002302E001236F
:1035100005E05B1C934202D2E05C0028F9D1A86967
:10352000E618C01AA861286A184428622846AFF332
:10353000008004E0D5E9012114F8010B9047B44262
:10354000F8D32846AFF3008070BD704770477047CE
:10355000704710B5436913B1AFF3008001E0FFF786
:10356000CBFF012010BD127800F124010A70002267
:103570004A700122EDE711684FF0FF32E9E70000E1
:10358000074B70B50D467B4400F011F80446284601
:1035900000F020F810B14FF0FF3070BD204670BD34
:1035A000B1FDFFFF01694A1C02610878704700B550
:1035B0008FB0CDE901310021059105497944CDE96C
:1035C000031011466846FFF763FF0FB000BD00000F
:1035D000E5FFFFFF007B00F080007047754600F0BC
:1035E00029F8AE4605006946534620F00700854697
:1035F00018B020B5FDF7D0FDBDE820404FF0000623
:103600004FF000074FF000084FF0000B21F00701CA
:10361000AC46ACE8C009ACE8C009ACE8C009ACE80D
:10362000C0098D4670470446AFF300802046FCF782
:10363000CBFD0000004870476402002021F00042EA
:10364000A2F16052B2F5801F01F0004328BFD2F111
:103650007F6C0BD95FEA001C43EAC20242EB507058
:1036600018BF704728BF20F001007047B2F5801FD7
:10367000BCBF184670474FEA410C1CF5001F02D230
:10368000084600F014BF70B500F03CFB0000008954
:10369000FFF7F6BF4FF00040A0F580007047000034
:1036A00010B591EA030F48BF83F0004300F1928305
:1036B000841A71EB030C05D2121943EB0C03001BA7
:1036C00061EB0C01DFF824E14FEA1154A4EB135C29
:1036D0001EEA430F18BF9EEA445F73D023EA0E032D
:1036E000DCF1200E21EA045143F4801332D322FA94
:1036F0000CFE10EB0E0023FA0CFE41EB0E01CCF198
:10370000200E03FA0EFE10EB0E0051F10001B1F590
:10371000801FCCF1200E32D201EB045112FA0EF2CE
:10372000BDE8104058BF7047401C38BF5FEA4202F6
:1037300018BF7047002814BF20F0010041F10001BC
:103740004FEA410313F5001F38BF7047A1F1C04194
:1037500000F026BB012A43EB0302ACF1200CDCF1A4
:103760001F0E32BF4FF0000E23FA0CF310EB0300D4
:1037700041EB0451B4EB115FD0D0A1EB045101F542
:10378000801149085FEA300001EB04510ED350F17B
:10379000000038BF12FA0EFE08D1BDE81040C9E79C
:1037A000401C38BF5FEA4202CAD1C3E7BDE81040FF
:1037B0004FEA410313F5001F38BF7047A1F1C04124
:1037C00000F0EEBA9EEA445F08D011EA5E0FBDE851
:1037D000104004BF01F0004100207047BDE81040D8
:1037E00070B500F08FFA00BF64FBBE3E0000E0FF42
:1037F0002DE9C04130B4DFF8A0C23CEA111418BF73
:103800003CEA131400F0EC8081EA03051CEA111471
:1038100044EAD57418BF1CEA131500F0C780A4EB66
:1038200005044FF0004545EAC12145EAC32341EABA
:10383000505143EA525304F17F74994204F5003425
:103840004FEAC0204FEAC22208BF904200F09C809D
:103850004FEA13650FF24016765D4FEA134506FBFB
:1038600005F7C7F1807706FB07F74FEAD737A7FBC5
:1038700003687642C8F58038A7FB06CE38BFA8F1AA
:10388000010807FB08E64FF0000EA6FB028CE6FBE2
:1038900003CEDCF1000CCEF1004E38BFAEF1010ECC
:1038A000A6FB0C584FF000074FF00005E6FB0E8713
:1038B000A1FB08C6A0FB07CE16EB0E0645F10005DE
:1038C000E1FB076515F1E04E7EBFA4F580345FEAA9
:1038D00046066D4116F1800745F100054FEA1727AE
:1038E0004FEA066647EA0567A6F1DE46B6F1805F55
:1038F0004FEA15251FD9384624F0010C05EBC47199
:10390000BCF1FE6F01EB0C1102D8F0BCBDE80081E8
:1039100024425CBF01F5801E9EEAC47F02D4F0BC45
:10392000BDE80081244238D4F0BCA1F1C041BDE81B
:10393000004100F035BA4FEAD22242EA43524FEA40
:10394000D323A7FB02864FEAD02040EA415007FB71
:1039500003661EEA0E0F4FEAD12105FB026658BF2F
:10396000A6EB0056B6EB00564FEA520E4EEAC37E67
:1039700018EB0E0E56EB530EBDD518EB02085E4148
:103980007F1C55F10005B6E74FF480154FF0000796
:103990004FF000064FF00008ADE7F0BC4FF000001C
:1039A00001F1C04101F00041BDE8008111EA0C1FA6
:1039B0000CEA131500D00CE013EA0C1F00F0258070
:1039C0004FF00000F0BC81EA030101F00041BDE8C6
:1039D0000081F0BC81EA0301BDE8004100F0E0B9DC
:1039E000F0BCBDE8004170B500F08CF9097EFC3EEA
:1039F00000F007B881EA03014FF0000001F0004138
:103A0000704781EA030100F0CBB9F0BC4FF0000031
:103A10002249BDE800417047FFFDFBF9F7F5F4F2DC
:103A2000F0EEEDEBE9E8E6E4E3E1E0DEDDDBDAD859
:103A3000D7D5D4D3D1D0CFCDCCCBCAC8C7C6C5C4B7
:103A4000C2C1C0BFBEBDBCBBBAB9B8B7B6B5B4B3CE
:103A5000B2B1B0AFAEADACABAAA9A8A8A7A6A5A4B9
:103A6000A3A3A2A1A09F9F9E9D9C9C9B9A9999987D
:103A70009797969595949393929191908F8F8E8E20
:103A80008D8C8C8B8B8A89898888878786858584AD
:103A900084838382828181800000FF070000F87F99
:103AA0004FEA41034FEA5353A3F58063D3F11E035A
:103AB000C8BFD3F1210C0CDD4FF0004242EAC12215
:103AC00042EA505232FA03FC8CEAE17CACEBE17042
:103AD0007047102BC4BF0020704703F5787CBCF101
:103AE000FF3F04D06FF0004282EA2100704770B5BA
:103AF00000F008F94992248000207047F2E70000A6
:103B00004FEA1153A3F58063D3F11E03A8BFD3F18D
:103B1000200C08DB4FF0004242EAC12252EA505228
:103B200032FA03F0704709420BD4102BC4BF0020B7
:103B3000704703F5787CBCF1FF3F05D04FF0FF30B4
:103B400070474FF00000704770B500F0DBF800BF21
:103B50004992248000207047F0E710F0004248BFEF
:103B60004042B0FA80F310FA03F10AD0C3F11D030A
:103B700003F580634FEA415002EB035202EBD1217F
:103B800070474FF000007047B0FA80F310FA03F16D
:103B90000AD0C3F11D0303F580634FEA41504FEA99
:103BA000035202EBD12170474FF000007047000034
:103BB000DFF848C170B51CEA111E1EBF1CEA1315C0
:103BC0009EEA0C0F95EA0C0F00F06F8081EA030467
:103BD00023EA4C134EEAD47E21EA4C1141F48011C1
:103BE00043F48013AE44A1FB024CA0FB0365AEF18D
:103BF0007F7E361955EB0C05A1FB034C4CF10003FD
:103C0000A0FB021C16EB0C06654153F100030942B0
:103C100018BF46F0010613F4007F0BD14FEA0331C1
:103C20004FEA0530340341EA155140EA16506FF06F
:103C300003020AE04FEAC3214FEAC520F40241EA39
:103C4000555140EA56506FF0020202EB2E4201EB52
:103C5000025585EACE710AD05FEA440C18BF24F001
:103C6000004450F1000041F1000120EAD47040F21C
:103C7000FE7C624500D270BDA84214BF4FF0804464
:103C80004FF04044002E08BF0024BEF1806FA8BF53
:103C9000A1F1C041BDE8704080F282804FF0000089
:103CA00001F1C04101F0004170479EEA0C0F0CEA9F
:103CB000131518BF95EA0C0F06D04FF0000081EAEB
:103CC000030E0EF0004170BD00F01CF88900013EAB
:103CD00000F007B800F009B84FEA430C5FEA5C5CFB
:103CE00008D081EA030100F05BB84FEA410C5FEABB
:103CF0005C5CF6D14FF00000014970470000FF07FF
:103D00000000F87F0EF1020E2EF0030E5EF8046B39
:103D1000364205D4012A43EB030515F5001F12D8DE
:103D2000012841EB010C1CF5001F0CD80ED14FEA05
:103D3000D17C15F5001F0CEB4C0C0CF1020C08BFEC
:103D40004CEBD37C04E04FF0080C01E04FEAD37C4D
:103D50000CEB4C0526FA05F606F00706B6F1040C46
:103D600006D20EEB860CBDE870404CF0010C6047AB
:103D7000DFE80CF0090B02024FF000414FF00000A9
:103D8000A1F5002170BD19461046012851EB010430
:103D900018BFD4F5001484BF002001F0004170BDAD
:103DA0000808A0F500114FEA3101704791EA030FAE
:103DB00010B581F000413FF57BAC83F0004300F08B
:103DC00009B8000010B591EA030F48BF83F0004323
:103DD0003FF56EAC841A71EB030C07D212198CF00C
:103DE000004C43EB0C03001B61EB0C01DFF8A4E17A
:103DF0004FEA1154A4EB135C1EEA430F18BF9EEA6E
:103E0000445F00F0B08023EA6E03524221EA04517D
:103E1000C3EB6E0338BF5B1EDCF1200E25D322FA04
:103E20000CFE10EB0E0043FA0CFE41EB0E01CCF140
:103E3000200E03FA0EFE10EB0E0051F10001CCF142
:103E4000200E29D412FA0EF201EB0451BDE8104005
:103E500058BF7047401C1CBFB2F1004F704700288C
:103E60000CBF491C20F00100704712EB020E43EB1F
:103E7000030218BF4FF0010E4EEA4202ACF1200CD3
:103E8000DCF11E0E54D943FA0CFE10EB0E0051F17A
:103E9000FF31CCF11E0ED5D50EF1010E12FA0EFE39
:103EA000404141EB010101EB445C5FEA5C5C10D9ED
:103EB00010EBDE7001EB045138BFBEF1004FBDE8DE
:103EC000104018BF704700280CBF491C20F00100AB
:103ED000704730D24FEAD42C11F5001124F400645D
:103EE0001BD0B1FA81F20B3AA41AA41ED2F120031E
:103EF000914030FA03F31943904001EBCC71002C50
:103F000001EB0451BDE81040A8BF704701F1C0416A
:103F10004FF0000001F000417047B0FA80F310FA52
:103F200003F100D110BDE41A173C4805C90AE4E7C3
:103F300001EB045110BD491001EB0451BDE81040E4
:103F40004FEA300002E04FF0000170474A0008BF1E
:103F50000042F8D0B2F5001F28BF704701F00041C1
:103F60004FF0000070479EEA445F07D011EA5E0FF1
:103F7000BDE8104004BF002100207047BDE810409C
:103F800070B5FFF7BFFE00BF40DFF63E83F0004193
:103F9000104670470000E0FF43004FEAD30C4FEAA1
:103FA0003C0C43401FBF40070CF1605113F0FE4F23
:103FB00070471CF0006F03D100200CF000417047E7
:103FC0000CF0004343EA507010B540EACC0000F01A
:103FD00028FA00BF000000924FEA0001FFF7E0BEA0
:103FE0004FF000414FF00000A1F5002170470000A4
:103FF00090EA010F48BF81F0004100F19682421A19
:104000003CBF801A89184FEAD0524FF07F4C1CEA0F
:10401000410FA2EBD15318BF9CEA026F00F03B8026
:104020004FF0004C4CEA00204CEA012121FA03FC3D
:1040300010EB0C0C1ED202F1FF325FEA1C2040EBA9
:10404000C25038BF70471CF07F0F4FEA400C18BFBA
:10405000BCF17F4F38BF7047C3F12003994008BFC0
:1040600020F00100BCF17F4F38BF7047A0F1C04085
:1040700000F01DBA4FEA3C00000A40EBC25028BFD6
:104080001CF0FF0F4FEA400CE6D018BFBCF17F4F89
:1040900038BF7047EAE79CEA026F05D010EA5C0F70
:1040A00008BF00F00040704710B500F0BAF900BF3B
:1040B00064FBBE3E401058BFC0F14040491058BF9D
:1040C000C1F140418142EFF3008070474FF47F0C13
:1040D0001CEAD0121EBF1CEAD11392EA0C0F93EA1D
:1040E0000C0F00F0858090EA010F48BF42F4807207
:1040F00040F4000C41F400002CF07F4120F07F40A0
:1041000000B58142A2EB03020FF2081CACEB504E4B
:10411000C0F100009EF800E04FEA4E0E00FB0EFCDE
:1041200038BF49004FEA2C1C02F5FA020CFB0EF3D3
:104130004FEACE1E4FEA112C4FEAC1210EEB635E0F
:1041400042EB22420EFB0CFC4FEA1C5300FB031116
:104150004FEA112C4FEA01310EFB0CFC4FEADC4C0C
:1041600000FB0C11C14228BF09184CEB03335DF86A
:1041700004EB10EB410143EBC250B2F57C0F38BFAA
:10418000704729D512F0F00F1CBF00F1C04000F0BD
:1041900000407047008182838485868788898B8C64
:1041A0008D8E8F919293959697999A9C9D9FA0A2A0
:1041B000A3A5A7A8AAACAEB0B2B3B5B7B9BCBEC0F0
:1041C000C2C5C7C9CCCED1D4D7D9DCDFE2E6E9EC91
:1041D000F0F3F7FAFE0000004FEA400C0CF1807C8F
:1041E000BCF17E4F28BF7047B0F1C04000F05FB90E
:1041F00090EA010F0CEAD11348BF42F48072624585
:1042000038BF634507D213F47F0F16D080EA010050
:1042100000F00040704710B500F003F9097EFC3E45
:1042200000F005B880EA010000F00040704780EA25
:10423000010000F0004000F03AB912F47F0F04BF13
:104240000248704780EA010000F031B90000C07FE9
:1042500041000B0ED3F19E0208D950F400034FEA3F
:10426000032323FA02F048BF4042704710B500F024
:10427000D8F800BF49922480002070476FF00042B8
:1042800082EA20007047000010F0004148BF404221
:10429000B0FA80F310FA03F2C3F19D030BD051EA98
:1042A000C35101EB1220530638BF704700F10100E3
:1042B00008BF20F00100704750EA010C00F11380A4
:1042C0001CF5000F58BFBCF5000F01D488427047A1
:1042D00007D710F5000F58BF11F5000F15D488420D
:1042E0007047894270471CF5000F04D5BCF5000FDC
:1042F000F7D5814270474FF0807C1CEB400F38BFF0
:104300001CEB410F01D28142704710B500F089F8D3
:10431000922449004FF000504FF08051FFF7CABE81
:104320004FF47F0C1CEAD0121EBF1CEAD11392EA94
:104330000C0F93EA0C0F00F0478090EA010F48BF82
:1043400042F480724FF0004C4CEA00204CEA01210C
:1043500002EB0302A0FB0113A2F50002002918BF23
:1043600043F001035B0028BF4FEA330342EB2242D4
:104370005FEA132C4CEBC2502EBFBCEB436FB2F57F
:104380007C0F70474FEA036CBCF1004F08BF20F070
:104390000100B2F57C0F38BF70470BD582F0FF02E9
:1043A00012F5803FC8BF704700F1C040D8BF00F091
:1043B0000040704700F5000C5FEA4C0C48BF7047A6
:1043C000B0F1C04000F073B890EA010F0CEAD113CD
:1043D00048BF42F48072624538BF634504D280EA28
:1043E000010000F00040704710B500F01AF800BF5F
:1043F0008900013E00F007B800F009B85FEA410CFF
:104400005FEA1C6C08D080EA010000F050B85FEA57
:10441000400C5FEA1C6CF6D14FF00040A0F5800024
:1044200070470EF1020E2EF0030E5EF8044B24428C
:1044300004D44FEA4102B2F17F4F11D84FEA400352
:10444000B3F17F4F0CD80ED14FEAD07CB2F17F4F41
:104450000CEB4C0C0CF1020C08BF4CEBD17C04E0D3
:104460004FF0080C01E04FEAD17C0CEB4C0324FA2E
:1044700003F404F00704B4F1040C06D20EEB840C30
:10448000BDE810404CF0010C6047DFE80CF0070875
:1044900002024FF00040A0F5800010BD0846420027
:1044A00018BFD2F1807288BF00F0004010BDFF211C
:1044B00041EAD050C005704751EA000C00F113806A
:1044C0001CF5000F58BFBCF5000F01D481427047A6
:1044D00007D711F5000F58BF10F5000F15D4814212
:1044E0007047894270471CF5000F04D5BCF5000FDA
:1044F000F7D5884270474FF0807C1CEB410F38BFE6
:104500001CEB400F01D28842704780EA010081EA2B
:10451000000180EA0100FFF7F8BE000090EA010FF9
:1045200048BF81F000413FF56AAD421A04D882F0DD
:104530000042A0EB020011444FEAD0524FF07F4CF2
:104540001CEA410FA2EBD15318BF9CEA026F4AD07C
:104550004FF0004C4CEA00204CEA012121FA03FC08
:10456000B0EB0C0C0FD412F0FE0F36D05FEA4C000B
:104570001DD5001240EBC25038BF70471CF03F0FF2
:1045800018BF70470BE0A2F101025FEA1C2040EB6C
:10459000C25038BF70471CF07F0F18BF7047C3F17F
:1045A0002003994014BF401E20F00100704780088E
:1045B0004FEA122308BF7047B0FA80FCA2EB0C024E
:1045C000CCF1280C60FA0CF093EA122F04BF00EB38
:1045D000C25070474FEAC3707047130A5FEADC109D
:1045E00008BF7047F6E79CEA026F04D010EA5C0F40
:1045F00008BF0020704710B5FFF713FF40DFF63EFD
:1046000081F00040704700002846000800000020AC
:104610005C0000006C010008844600085C0000207B
:104620006C08000088010008000000000000000085
:10463000000000000000000000000000000000007A
:10464000000000000000000000000000000000006A
:1046500000A24A0400000000000000000102030460
:104660000607080900000000010203040102030418
:104670000607080902040608000000000000000008
:044680000000000036
:0400000508000131BD
:00000001FF
